{
  "address": "0x601D58906d22CE2FabdFB112E15e515557aA191C",
  "abi": [
    {
      "inputs": [
        {
          "internalType": "string",
          "name": "name",
          "type": "string"
        },
        {
          "internalType": "string",
          "name": "version",
          "type": "string"
        },
        {
          "internalType": "address",
          "name": "signer_",
          "type": "address"
        }
      ],
      "stateMutability": "nonpayable",
      "type": "constructor"
    },
    {
      "inputs": [],
      "name": "CancelX__InvalidOrder",
      "type": "error"
    },
    {
      "inputs": [],
      "name": "CancelX__InvalidSigner",
      "type": "error"
    },
    {
      "inputs": [],
      "name": "CancelX__OrderValidityExpired",
      "type": "error"
    },
    {
      "anonymous": false,
      "inputs": [
        {
          "indexed": true,
          "internalType": "address",
          "name": "previousOwner",
          "type": "address"
        },
        {
          "indexed": true,
          "internalType": "address",
          "name": "newOwner",
          "type": "address"
        }
      ],
      "name": "OwnershipTransferred",
      "type": "event"
    },
    {
      "inputs": [],
      "name": "ORDER_VALIDITY_HASHTYPE",
      "outputs": [
        {
          "internalType": "bytes32",
          "name": "",
          "type": "bytes32"
        }
      ],
      "stateMutability": "view",
      "type": "function"
    },
    {
      "inputs": [
        {
          "internalType": "bytes32",
          "name": "",
          "type": "bytes32"
        },
        {
          "internalType": "address",
          "name": "",
          "type": "address"
        },
        {
          "internalType": "address",
          "name": "",
          "type": "address"
        },
        {
          "internalType": "bytes32",
          "name": "",
          "type": "bytes32"
        }
      ],
      "name": "isValidOrder",
      "outputs": [
        {
          "internalType": "bytes4",
          "name": "",
          "type": "bytes4"
        }
      ],
      "stateMutability": "pure",
      "type": "function"
    },
    {
      "inputs": [
        {
          "internalType": "bytes32",
          "name": "orderHash",
          "type": "bytes32"
        },
        {
          "internalType": "address",
          "name": "",
          "type": "address"
        },
        {
          "components": [
            {
              "components": [
                {
                  "internalType": "address",
                  "name": "offerer",
                  "type": "address"
                },
                {
                  "internalType": "address",
                  "name": "zone",
                  "type": "address"
                },
                {
                  "components": [
                    {
                      "internalType": "enum ItemType",
                      "name": "itemType",
                      "type": "uint8"
                    },
                    {
                      "internalType": "address",
                      "name": "token",
                      "type": "address"
                    },
                    {
                      "internalType": "uint256",
                      "name": "identifierOrCriteria",
                      "type": "uint256"
                    },
                    {
                      "internalType": "uint256",
                      "name": "startAmount",
                      "type": "uint256"
                    },
                    {
                      "internalType": "uint256",
                      "name": "endAmount",
                      "type": "uint256"
                    }
                  ],
                  "internalType": "struct OfferItem[]",
                  "name": "offer",
                  "type": "tuple[]"
                },
                {
                  "components": [
                    {
                      "internalType": "enum ItemType",
                      "name": "itemType",
                      "type": "uint8"
                    },
                    {
                      "internalType": "address",
                      "name": "token",
                      "type": "address"
                    },
                    {
                      "internalType": "uint256",
                      "name": "identifierOrCriteria",
                      "type": "uint256"
                    },
                    {
                      "internalType": "uint256",
                      "name": "startAmount",
                      "type": "uint256"
                    },
                    {
                      "internalType": "uint256",
                      "name": "endAmount",
                      "type": "uint256"
                    },
                    {
                      "internalType": "address payable",
                      "name": "recipient",
                      "type": "address"
                    }
                  ],
                  "internalType": "struct ConsiderationItem[]",
                  "name": "consideration",
                  "type": "tuple[]"
                },
                {
                  "internalType": "enum OrderType",
                  "name": "orderType",
                  "type": "uint8"
                },
                {
                  "internalType": "uint256",
                  "name": "startTime",
                  "type": "uint256"
                },
                {
                  "internalType": "uint256",
                  "name": "endTime",
                  "type": "uint256"
                },
                {
                  "internalType": "bytes32",
                  "name": "zoneHash",
                  "type": "bytes32"
                },
                {
                  "internalType": "uint256",
                  "name": "salt",
                  "type": "uint256"
                },
                {
                  "internalType": "bytes32",
                  "name": "conduitKey",
                  "type": "bytes32"
                },
                {
                  "internalType": "uint256",
                  "name": "totalOriginalConsiderationItems",
                  "type": "uint256"
                }
              ],
              "internalType": "struct OrderParameters",
              "name": "parameters",
              "type": "tuple"
            },
            {
              "internalType": "uint120",
              "name": "numerator",
              "type": "uint120"
            },
            {
              "internalType": "uint120",
              "name": "denominator",
              "type": "uint120"
            },
            {
              "internalType": "bytes",
              "name": "signature",
              "type": "bytes"
            },
            {
              "internalType": "bytes",
              "name": "extraData",
              "type": "bytes"
            }
          ],
          "internalType": "struct AdvancedOrder",
          "name": "order",
          "type": "tuple"
        },
        {
          "internalType": "bytes32[]",
          "name": "",
          "type": "bytes32[]"
        },
        {
          "components": [
            {
              "internalType": "uint256",
              "name": "orderIndex",
              "type": "uint256"
            },
            {
              "internalType": "enum Side",
              "name": "side",
              "type": "uint8"
            },
            {
              "internalType": "uint256",
              "name": "index",
              "type": "uint256"
            },
            {
              "internalType": "uint256",
              "name": "identifier",
              "type": "uint256"
            },
            {
              "internalType": "bytes32[]",
              "name": "criteriaProof",
              "type": "bytes32[]"
            }
          ],
          "internalType": "struct CriteriaResolver[]",
          "name": "",
          "type": "tuple[]"
        }
      ],
      "name": "isValidOrderIncludingExtraData",
      "outputs": [
        {
          "internalType": "bytes4",
          "name": "validOrderMagicValue",
          "type": "bytes4"
        }
      ],
      "stateMutability": "view",
      "type": "function"
    },
    {
      "inputs": [],
      "name": "owner",
      "outputs": [
        {
          "internalType": "address",
          "name": "",
          "type": "address"
        }
      ],
      "stateMutability": "view",
      "type": "function"
    },
    {
      "inputs": [],
      "name": "renounceOwnership",
      "outputs": [],
      "stateMutability": "nonpayable",
      "type": "function"
    },
    {
      "inputs": [
        {
          "internalType": "address",
          "name": "signer_",
          "type": "address"
        }
      ],
      "name": "setSigner",
      "outputs": [],
      "stateMutability": "nonpayable",
      "type": "function"
    },
    {
      "inputs": [],
      "name": "signer",
      "outputs": [
        {
          "internalType": "address",
          "name": "",
          "type": "address"
        }
      ],
      "stateMutability": "view",
      "type": "function"
    },
    {
      "inputs": [
        {
          "internalType": "address",
          "name": "newOwner",
          "type": "address"
        }
      ],
      "name": "transferOwnership",
      "outputs": [],
      "stateMutability": "nonpayable",
      "type": "function"
    }
  ],
  "transactionHash": "0x3ef4367c94f3dfcc346edc27f7b268ca82fbe38ff23ca429cea5b2d0b6f303af",
  "args": [
    "CancelX",
    "1.0.0",
    "0x7852203a131Ff8b1D70Ab567df7f21457CBD53a4"
  ],
  "numDeployments": 1,
  "solcInputHash": "81c27458a55c5b8512d5e9497d8faab7",
  "bytecode": "0x6101406040523480156200001257600080fd5b5060405162000f5c38038062000f5c83398101604081905262000035916200020d565b825160208085019190912083518483012060e08290526101008190524660a0818152604080517f8b73c3c69bb8fe3d512ecc4cf759cc79239f7b179b0ffacaa9a75d522b39400f818801819052818301969096526060810194909452608080850193909352308483018190528151808603909301835260c09485019091528151919095012090529190915261012052620000cf33620000f8565b600180546001600160a01b0319166001600160a01b0392909216919091179055506200029a9050565b600080546001600160a01b038381166001600160a01b0319831681178455604051919092169283917f8be0079c531659141344cd1fd0a4f28419497f9722a3daafe3b4186f6b6457e09190a35050565b634e487b7160e01b600052604160045260246000fd5b600082601f8301126200017057600080fd5b81516001600160401b03808211156200018d576200018d62000148565b604051601f8301601f19908116603f01168101908282118183101715620001b857620001b862000148565b81604052838152602092508683858801011115620001d557600080fd5b600091505b83821015620001f95785820183015181830184015290820190620001da565b600093810190920192909252949350505050565b6000806000606084860312156200022357600080fd5b83516001600160401b03808211156200023b57600080fd5b62000249878388016200015e565b945060208601519150808211156200026057600080fd5b506200026f868287016200015e565b604086015190935090506001600160a01b03811681146200028f57600080fd5b809150509250925092565b60805160a05160c05160e0516101005161012051610c72620002ea6000396000610602015260006106510152600061062c01526000610585015260006105af015260006105d90152610c726000f3fe608060405234801561001057600080fd5b50600436106100885760003560e01c80636c19e7831161005b5780636c19e78314610144578063715018a6146101595780638da5cb5b14610161578063f2fde38b1461017257600080fd5b80630e1d31dc1461008d578063238ac933146100d157806333131570146100fc578063342303231461010f575b600080fd5b61009b610088366004610929565b6040517fffffffff0000000000000000000000000000000000000000000000000000000090911681526020015b60405180910390f35b6001546100e4906001600160a01b031681565b6040516001600160a01b0390911681526020016100c8565b61009b61010a3660046109b2565b610185565b6101367fafc60ebf9f3db10532146b7d98ec0b4c86afb5e9c72177b4877bbac7c44bd3d081565b6040519081526020016100c8565b610157610152366004610a69565b61021d565b005b61015761025f565b6000546001600160a01b03166100e4565b610157610180366004610a69565b610273565b600080806101966080890189610a84565b8101906101a39190610b72565b9150915081602001518a146101e4576040517fd8c04d4300000000000000000000000000000000000000000000000000000000815260040160405180910390fd5b6101ee8282610308565b507f0e1d31dc000000000000000000000000000000000000000000000000000000009998505050505050505050565b61022561039c565b600180547fffffffffffffffffffffffff0000000000000000000000000000000000000000166001600160a01b0392909216919091179055565b61026761039c565b61027160006103f6565b565b61027b61039c565b6001600160a01b0381166102fc5760405162461bcd60e51b815260206004820152602660248201527f4f776e61626c653a206e6577206f776e657220697320746865207a65726f206160448201527f646472657373000000000000000000000000000000000000000000000000000060648201526084015b60405180910390fd5b610305816103f6565b50565b815143811015610344576040517fcfb73cfe00000000000000000000000000000000000000000000000000000000815260040160405180910390fd5b600061035482856020015161045e565b905061036081846104c1565b610396576040517f77998e6b00000000000000000000000000000000000000000000000000000000815260040160405180910390fd5b50505050565b6000546001600160a01b031633146102715760405162461bcd60e51b815260206004820181905260248201527f4f776e61626c653a2063616c6c6572206973206e6f7420746865206f776e657260448201526064016102f3565b600080546001600160a01b038381167fffffffffffffffffffffffff0000000000000000000000000000000000000000831681178455604051919092169283917f8be0079c531659141344cd1fd0a4f28419497f9722a3daafe3b4186f6b6457e09190a35050565b604080517fafc60ebf9f3db10532146b7d98ec0b4c86afb5e9c72177b4877bbac7c44bd3d06020820152908101839052606081018290526000906104ba90608001604051602081830303815290604052805190602001206104e5565b9392505050565b60006104cd8383610554565b6001546001600160a01b039182169116149392505050565b600061054e6104f2610578565b836040517f19010000000000000000000000000000000000000000000000000000000000006020820152602281018390526042810182905260009060620160405160208183030381529060405280519060200120905092915050565b92915050565b6000806000610563858561069f565b91509150610570816106e4565b509392505050565b6000306001600160a01b037f0000000000000000000000000000000000000000000000000000000000000000161480156105d157507f000000000000000000000000000000000000000000000000000000000000000046145b156105fb57507f000000000000000000000000000000000000000000000000000000000000000090565b50604080517f00000000000000000000000000000000000000000000000000000000000000006020808301919091527f0000000000000000000000000000000000000000000000000000000000000000828401527f000000000000000000000000000000000000000000000000000000000000000060608301524660808301523060a0808401919091528351808403909101815260c0909201909252805191012090565b60008082516041036106d55760208301516040840151606085015160001a6106c987828585610849565b945094505050506106dd565b506000905060025b9250929050565b60008160048111156106f8576106f8610c36565b036107005750565b600181600481111561071457610714610c36565b036107615760405162461bcd60e51b815260206004820152601860248201527f45434453413a20696e76616c6964207369676e6174757265000000000000000060448201526064016102f3565b600281600481111561077557610775610c36565b036107c25760405162461bcd60e51b815260206004820152601f60248201527f45434453413a20696e76616c6964207369676e6174757265206c656e6774680060448201526064016102f3565b60038160048111156107d6576107d6610c36565b036103055760405162461bcd60e51b815260206004820152602260248201527f45434453413a20696e76616c6964207369676e6174757265202773272076616c60448201527f756500000000000000000000000000000000000000000000000000000000000060648201526084016102f3565b6000807f7fffffffffffffffffffffffffffffff5d576e7357a4501ddfe92f46681b20a08311156108805750600090506003610904565b6040805160008082526020820180845289905260ff881692820192909252606081018690526080810185905260019060a0016020604051602081039080840390855afa1580156108d4573d6000803e3d6000fd5b5050604051601f1901519150506001600160a01b0381166108fd57600060019250925050610904565b9150600090505b94509492505050565b80356001600160a01b038116811461092457600080fd5b919050565b6000806000806080858703121561093f57600080fd5b8435935061094f6020860161090d565b925061095d6040860161090d565b9396929550929360600135925050565b60008083601f84011261097f57600080fd5b50813567ffffffffffffffff81111561099757600080fd5b6020830191508360208260051b85010111156106dd57600080fd5b600080600080600080600060a0888a0312156109cd57600080fd5b873596506109dd6020890161090d565b9550604088013567ffffffffffffffff808211156109fa57600080fd5b9089019060a0828c031215610a0e57600080fd5b90955060608901359080821115610a2457600080fd5b610a308b838c0161096d565b909650945060808a0135915080821115610a4957600080fd5b50610a568a828b0161096d565b989b979a50959850939692959293505050565b600060208284031215610a7b57600080fd5b6104ba8261090d565b60008083357fffffffffffffffffffffffffffffffffffffffffffffffffffffffffffffffe1843603018112610ab957600080fd5b83018035915067ffffffffffffffff821115610ad457600080fd5b6020019150368190038213156106dd57600080fd5b7f4e487b7100000000000000000000000000000000000000000000000000000000600052604160045260246000fd5b6040805190810167ffffffffffffffff81118282101715610b3b57610b3b610ae9565b60405290565b604051601f8201601f1916810167ffffffffffffffff81118282101715610b6a57610b6a610ae9565b604052919050565b6000808284036060811215610b8657600080fd5b6040811215610b9457600080fd5b50610b9d610b18565b833581526020808501358183015290925060408401359067ffffffffffffffff80831115610bca57600080fd5b828601925086601f840112610bde57600080fd5b823581811115610bf057610bf0610ae9565b610c0283601f19601f84011601610b41565b91508082528783828601011115610c1857600080fd5b80838501848401376000838284010152508093505050509250929050565b7f4e487b7100000000000000000000000000000000000000000000000000000000600052602160045260246000fdfea164736f6c6343000811000a",
  "devdoc": {
    "kind": "dev",
    "methods": {
      "owner()": {
        "details": "Returns the address of the current owner."
      },
      "renounceOwnership()": {
        "details": "Leaves the contract without owner. It will not be possible to call `onlyOwner` functions anymore. Can only be called by the current owner. NOTE: Renouncing ownership will leave the contract without an owner, thereby removing any functionality that is only available to the owner."
      },
      "transferOwnership(address)": {
        "details": "Transfers ownership of the contract to a new account (`newOwner`). Can only be called by the current owner."
      }
    },
    "version": 1
  },
  "userdoc": {
    "kind": "user",
    "methods": {},
    "version": 1
  },
  "storageLayout": {
    "storage": [
      {
        "astId": 7,
        "contract": "src/CancelX.sol:CancelX",
        "label": "_owner",
        "offset": 0,
        "slot": "0",
        "type": "t_address"
      },
      {
        "astId": 1725,
        "contract": "src/CancelX.sol:CancelX",
        "label": "signer",
        "offset": 0,
        "slot": "1",
        "type": "t_address"
      }
    ],
    "types": {
      "t_address": {
        "encoding": "inplace",
        "label": "address",
        "numberOfBytes": "20"
      }
    }
  }
}