{
  "address": "0xe6B2D741CA306EC1e0963028Ef2F233D162597db",
  "abi": [
    {
      "inputs": [],
      "stateMutability": "nonpayable",
      "type": "constructor"
    },
    {
      "inputs": [
        {
          "internalType": "address",
          "name": "zone",
          "type": "address"
        }
      ],
      "name": "CallerIsNotNewPotentialOwner",
      "type": "error"
    },
    {
      "inputs": [
        {
          "internalType": "address",
          "name": "zone",
          "type": "address"
        }
      ],
      "name": "CallerIsNotOwner",
      "type": "error"
    },
    {
      "inputs": [
        {
          "internalType": "address",
          "name": "zone",
          "type": "address"
        }
      ],
      "name": "CallerIsNotOwnerOrSigner",
      "type": "error"
    },
    {
      "inputs": [],
      "name": "InvalidCreator",
      "type": "error"
    },
    {
      "inputs": [],
      "name": "InvalidInitialOwner",
      "type": "error"
    },
    {
      "inputs": [
        {
          "internalType": "address",
          "name": "zone",
          "type": "address"
        },
        {
          "internalType": "address",
          "name": "newPotentialOwner",
          "type": "address"
        }
      ],
      "name": "NewPotentialOwnerAlreadySet",
      "type": "error"
    },
    {
      "inputs": [
        {
          "internalType": "address",
          "name": "zone",
          "type": "address"
        }
      ],
      "name": "NewPotentialOwnerIsZeroAddress",
      "type": "error"
    },
    {
      "inputs": [
        {
          "internalType": "address",
          "name": "zone",
          "type": "address"
        }
      ],
      "name": "NoPotentialOwnerCurrentlySet",
      "type": "error"
    },
    {
      "inputs": [],
      "name": "NoZone",
      "type": "error"
    },
    {
      "inputs": [
        {
          "internalType": "address",
          "name": "signer",
          "type": "address"
        }
      ],
      "name": "SignerAlreadyAdded",
      "type": "error"
    },
    {
      "inputs": [
        {
          "internalType": "address",
          "name": "signer",
          "type": "address"
        }
      ],
      "name": "SignerCannotBeReauthorized",
      "type": "error"
    },
    {
      "inputs": [],
      "name": "SignerCannotBeZeroAddress",
      "type": "error"
    },
    {
      "inputs": [
        {
          "internalType": "address",
          "name": "signer",
          "type": "address"
        }
      ],
      "name": "SignerNotPresent",
      "type": "error"
    },
    {
      "inputs": [
        {
          "internalType": "address",
          "name": "zone",
          "type": "address"
        }
      ],
      "name": "ZoneAlreadyExists",
      "type": "error"
    },
    {
      "anonymous": false,
      "inputs": [
        {
          "indexed": true,
          "internalType": "address",
          "name": "zone",
          "type": "address"
        },
        {
          "indexed": true,
          "internalType": "address",
          "name": "previousOwner",
          "type": "address"
        },
        {
          "indexed": true,
          "internalType": "address",
          "name": "newOwner",
          "type": "address"
        }
      ],
      "name": "OwnershipTransferred",
      "type": "event"
    },
    {
      "anonymous": false,
      "inputs": [
        {
          "indexed": true,
          "internalType": "address",
          "name": "newPotentialOwner",
          "type": "address"
        }
      ],
      "name": "PotentialOwnerUpdated",
      "type": "event"
    },
    {
      "anonymous": false,
      "inputs": [
        {
          "indexed": false,
          "internalType": "address",
          "name": "signedZone",
          "type": "address"
        },
        {
          "indexed": false,
          "internalType": "address",
          "name": "signer",
          "type": "address"
        },
        {
          "indexed": false,
          "internalType": "bool",
          "name": "active",
          "type": "bool"
        }
      ],
      "name": "SignerUpdated",
      "type": "event"
    },
    {
      "anonymous": false,
      "inputs": [
        {
          "indexed": false,
          "internalType": "address",
          "name": "zoneAddress",
          "type": "address"
        },
        {
          "indexed": false,
          "internalType": "string",
          "name": "zoneName",
          "type": "string"
        },
        {
          "indexed": false,
          "internalType": "string",
          "name": "apiEndpoint",
          "type": "string"
        },
        {
          "indexed": false,
          "internalType": "string",
          "name": "documentationURI",
          "type": "string"
        },
        {
          "indexed": false,
          "internalType": "bytes32",
          "name": "salt",
          "type": "bytes32"
        }
      ],
      "name": "ZoneCreated",
      "type": "event"
    },
    {
      "inputs": [
        {
          "internalType": "address",
          "name": "zone",
          "type": "address"
        }
      ],
      "name": "acceptOwnership",
      "outputs": [],
      "stateMutability": "nonpayable",
      "type": "function"
    },
    {
      "inputs": [
        {
          "internalType": "address",
          "name": "zone",
          "type": "address"
        }
      ],
      "name": "cancelOwnershipTransfer",
      "outputs": [],
      "stateMutability": "nonpayable",
      "type": "function"
    },
    {
      "inputs": [
        {
          "internalType": "string",
          "name": "zoneName",
          "type": "string"
        },
        {
          "internalType": "string",
          "name": "apiEndpoint",
          "type": "string"
        },
        {
          "internalType": "string",
          "name": "documentationURI",
          "type": "string"
        },
        {
          "internalType": "address",
          "name": "initialOwner",
          "type": "address"
        },
        {
          "internalType": "bytes32",
          "name": "salt",
          "type": "bytes32"
        }
      ],
      "name": "createZone",
      "outputs": [
        {
          "internalType": "address",
          "name": "derivedAddress",
          "type": "address"
        }
      ],
      "stateMutability": "nonpayable",
      "type": "function"
    },
    {
      "inputs": [
        {
          "internalType": "address",
          "name": "zone",
          "type": "address"
        }
      ],
      "name": "getActiveSigners",
      "outputs": [
        {
          "internalType": "address[]",
          "name": "signers",
          "type": "address[]"
        }
      ],
      "stateMutability": "view",
      "type": "function"
    },
    {
      "inputs": [
        {
          "internalType": "address",
          "name": "zone",
          "type": "address"
        }
      ],
      "name": "getAdditionalZoneInformation",
      "outputs": [
        {
          "internalType": "bytes32",
          "name": "domainSeparator",
          "type": "bytes32"
        },
        {
          "internalType": "string",
          "name": "zoneName",
          "type": "string"
        },
        {
          "internalType": "string",
          "name": "apiEndpoint",
          "type": "string"
        },
        {
          "internalType": "uint256[]",
          "name": "substandards",
          "type": "uint256[]"
        },
        {
          "internalType": "string",
          "name": "documentationURI",
          "type": "string"
        }
      ],
      "stateMutability": "view",
      "type": "function"
    },
    {
      "inputs": [
        {
          "internalType": "address",
          "name": "zone",
          "type": "address"
        }
      ],
      "name": "getPotentialOwner",
      "outputs": [
        {
          "internalType": "address",
          "name": "potentialOwner",
          "type": "address"
        }
      ],
      "stateMutability": "view",
      "type": "function"
    },
    {
      "inputs": [
        {
          "internalType": "bytes32",
          "name": "salt",
          "type": "bytes32"
        }
      ],
      "name": "getZone",
      "outputs": [
        {
          "internalType": "address",
          "name": "derivedAddress",
          "type": "address"
        }
      ],
      "stateMutability": "view",
      "type": "function"
    },
    {
      "inputs": [
        {
          "internalType": "address",
          "name": "zone",
          "type": "address"
        }
      ],
      "name": "ownerOf",
      "outputs": [
        {
          "internalType": "address",
          "name": "owner",
          "type": "address"
        }
      ],
      "stateMutability": "view",
      "type": "function"
    },
    {
      "inputs": [
        {
          "internalType": "address",
          "name": "zone",
          "type": "address"
        },
        {
          "internalType": "address",
          "name": "newPotentialOwner",
          "type": "address"
        }
      ],
      "name": "transferOwnership",
      "outputs": [],
      "stateMutability": "nonpayable",
      "type": "function"
    },
    {
      "inputs": [
        {
          "internalType": "address",
          "name": "zone",
          "type": "address"
        },
        {
          "internalType": "string",
          "name": "newApiEndpoint",
          "type": "string"
        }
      ],
      "name": "updateAPIEndpoint",
      "outputs": [],
      "stateMutability": "nonpayable",
      "type": "function"
    },
    {
      "inputs": [
        {
          "internalType": "address",
          "name": "zone",
          "type": "address"
        },
        {
          "internalType": "address",
          "name": "signer",
          "type": "address"
        },
        {
          "internalType": "bool",
          "name": "active",
          "type": "bool"
        }
      ],
      "name": "updateSigner",
      "outputs": [],
      "stateMutability": "nonpayable",
      "type": "function"
    }
  ],
  "transactionHash": "0x36154d98f98ae3f846b440f9652da233b519c1e2b8d249dba785924650d8e606",
  "args": [],
  "numDeployments": 1,
  "solcInputHash": "2339bf4b64c8cbefe760a65feb1e1293",
  "bytecode": "0x600a61012052695369676e65645a6f6e6560b01b610140527f0aa333075d560d6d2e102e9d7afe8a8ba8b4a3ec41e19473caad880f9eb5fbe6608052600361016052620312e360ec1b610180527fe6bbd6277e1bf288eed5e8d1780f9a50b239e86b153736bceebccf4ea79d90b360a0526c08a92a06e626488dedac2d2dc5609b1b6101c09081526b1cdd1c9a5b99c81b985b594b60a21b6101cd526e1cdd1c9a5b99c81d995c9cda5bdb8b608a1b6101d9526f1d5a5b9d0c8d4d8818da185a5b92590b60821b6101e8527f6164647265737320766572696679696e67436f6e7472616374000000000000006101f852602960f81b6102115260526101a0819052610212604052902060c0524660e05234801561011b57600080fd5b5060405161012b60208201610150565b601f1982820381018352601f909101166040528051602091909101206101005261015d565b611b89806136e983390190565b60805160a05160c05160e051610100516135446101a5600039600081816101b301526103a801526000505060006111ea015260006112340152600061121001526135446000f3fe60806040523480156200001157600080fd5b5060043610620000d95760003560e01c806366a2489f116200008b578063906c87cc1162000062578063906c87cc1462000268578063dca09383146200027f578063e89fad58146200029657600080fd5b806366a2489f14620002145780636d435421146200023a5780637b37e561146200025157600080fd5b806314afd79e11620000c057806314afd79e14620001415780634b42e8d5146200015857806351710e4514620001fb57600080fd5b806304789c9814620000de5780630eb925161462000111575b600080fd5b620000f5620000ef3660046200130a565b620002ad565b6040516200010895949392919062001377565b60405180910390f35b6200012862000122366004620014ad565b620002dd565b6040516001600160a01b03909116815260200162000108565b62000128620001523660046200130a565b62000582565b62000128620001693660046200155a565b6040517fff0000000000000000000000000000000000000000000000000000000000000060208201526bffffffffffffffffffffffff193060601b166021820152603581018290527f0000000000000000000000000000000000000000000000000000000000000000605582015260009060750160408051601f19818403018152919052805160209091012092915050565b620002126200020c3660046200130a565b620005ae565b005b6200022b620002253660046200130a565b620006e4565b60405162000108919062001574565b620002126200024b366004620015c3565b6200076e565b62000212620002623660046200130a565b620008a6565b62000128620002793660046200130a565b62000974565b6200021262000290366004620015fb565b620009a3565b62000212620002a73660046200164d565b62000c87565b6000606080606080620002c08662000cc2565b620002cb8662000d17565b939a9299509097509550909350915050565b60006001600160a01b03831662000320576040517f99faaa0400000000000000000000000000000000000000000000000000000000815260040160405180910390fd5b606082901c33146200035e576040517fcb6e534400000000000000000000000000000000000000000000000000000000815260040160405180910390fd5b6040517fff0000000000000000000000000000000000000000000000000000000000000060208201526bffffffffffffffffffffffff193060601b166021820152603581018390527f0000000000000000000000000000000000000000000000000000000000000000605582015260750160408051601f19818403018152919052805160209091012090506001600160a01b0381163b156200043b576040517e8343850000000000000000000000000000000000000000000000000000000081526001600160a01b03821660048201526024015b60405180910390fd5b816040516200044a9062001273565b8190604051809103906000f59050801580156200046b573d6000803e3d6000fd5b50506001600160a01b038181166000908152602081905260409020805473ffffffffffffffffffffffffffffffffffffffff191691851691909117815560028101620004b8888262001765565b5060038101620004c9878262001765565b5060048101620004da868262001765565b50604080516020810190915260038152620004fc906005830190600162001281565b507f106160dca18b77e6926325d074dd8328fbec25f496d6fd313ef44f3e581e2afe82888888876040516200053695949392919062001832565b60405180910390a16040516001600160a01b03808616916000918516907fc8894f26f396ce8c004245c8b7cd1b92103a6e4302fcbab883987149ac01b7ec908390a45095945050505050565b60006200058f8262000cc2565b506001600160a01b039081166000908152602081905260409020541690565b620005b98162000cc2565b6001600160a01b038181166000908152602081905260409020600101541633146200061c576040517f88c3a1150000000000000000000000000000000000000000000000000000000081526001600160a01b038216600482015260240162000432565b6040516000907f11a3cf439fb225bfe74225716b6774765670ec1060e3796802e62139d69974da908290a26001600160a01b0380821660008181526020819052604080822060018101805473ffffffffffffffffffffffffffffffffffffffff1916905554905133949190911692917fc8894f26f396ce8c004245c8b7cd1b92103a6e4302fcbab883987149ac01b7ec91a46001600160a01b03166000908152602081905260409020805473ffffffffffffffffffffffffffffffffffffffff191633179055565b6060620006f18262000cc2565b6001600160a01b038216600090815260208181526040918290206007810180548451818502810185019095528085529193929091908301828280156200076157602002820191906000526020600020905b81546001600160a01b0316815260019091019060200180831162000742575b5050505050915050919050565b620007798262000f6b565b6001600160a01b038116620007c6576040517fa388d2630000000000000000000000000000000000000000000000000000000081526001600160a01b038316600482015260240162000432565b6001600160a01b0380831660009081526020819052604090206001015481169082160362000834576040517fcbc080ca0000000000000000000000000000000000000000000000000000000081526001600160a01b0380841660048301528216602482015260440162000432565b6040516001600160a01b038216907f11a3cf439fb225bfe74225716b6774765670ec1060e3796802e62139d69974da90600090a26001600160a01b039182166000908152602081905260409020600101805473ffffffffffffffffffffffffffffffffffffffff191691909216179055565b620008b18162000f6b565b6001600160a01b038181166000908152602081905260409020600101541662000912576040517f6b0136160000000000000000000000000000000000000000000000000000000081526001600160a01b038216600482015260240162000432565b6040516000907f11a3cf439fb225bfe74225716b6774765670ec1060e3796802e62139d69974da908290a26001600160a01b03166000908152602081905260409020600101805473ffffffffffffffffffffffffffffffffffffffff19169055565b6000620009818262000cc2565b506001600160a01b039081166000908152602081905260409020600101541690565b620009ae8362000fd6565b6001600160a01b0383166000908152602081905260409020620009d381848462001069565b6040517ff460590b0000000000000000000000000000000000000000000000000000000081526001600160a01b038481166004830152831515602483015285169063f460590b90604401600060405180830381600087803b15801562000a3857600080fd5b505af115801562000a4d573d6000803e3d6000fd5b505050506001600160a01b0383166000908152600682016020526040902080546101007fffffffffffffffffffffffffffffffffffffffffffffffffffffffffffff0000909116841580157fffffffffffffffffffffffffffffffffffffffffffffffffffffffffffff00ff16919091179190911790915562000b0d576007810180546001810182556000918252602090912001805473ffffffffffffffffffffffffffffffffffffffff19166001600160a01b03851617905562000c36565b60005b600782015481101562000c3457836001600160a01b031682600701828154811062000b3f5762000b3f62001893565b6000918252602090912001546001600160a01b03160362000c2b5760078201805462000b6e90600190620018a9565b8154811062000b815762000b8162001893565b6000918252602090912001546007830180546001600160a01b03909216918390811062000bb25762000bb262001893565b9060005260206000200160006101000a8154816001600160a01b0302191690836001600160a01b031602179055508160070180548062000bf65762000bf6620018cb565b6000828152602090208101600019908101805473ffffffffffffffffffffffffffffffffffffffff1916905501905562000c34565b60010162000b10565b505b604080516001600160a01b038681168252851660208201528315158183015290517fb658b57f3a8d73a4f3bb96789edcebed831f44d5cc4a513d4416c6bb25ea0e8b9181900360600190a150505050565b62000c928362000fd6565b6001600160a01b03831660009081526020819052604090206003810162000cbb838583620018e1565b5050505050565b6001600160a01b038181166000908152602081905260409020541662000d14576040517fb1a69e4800000000000000000000000000000000000000000000000000000000815260040160405180910390fd5b50565b6001600160a01b038116600090815260208190526040812060609081908190819062000d4387620011e0565b955080600201805462000d5690620016d7565b80601f016020809104026020016040519081016040528092919081815260200182805462000d8490620016d7565b801562000dd55780601f1062000da95761010080835404028352916020019162000dd5565b820191906000526020600020905b81548152906001019060200180831162000db757829003601f168201915b5050505050945080600301805462000ded90620016d7565b80601f016020809104026020016040519081016040528092919081815260200182805462000e1b90620016d7565b801562000e6c5780601f1062000e405761010080835404028352916020019162000e6c565b820191906000526020600020905b81548152906001019060200180831162000e4e57829003601f168201915b505050505093508060050180548060200260200160405190810160405280929190818152602001828054801562000ec357602002820191906000526020600020905b81548152602001906001019080831162000eae575b5050505050925080600401805462000edb90620016d7565b80601f016020809104026020016040519081016040528092919081815260200182805462000f0990620016d7565b801562000f5a5780601f1062000f2e5761010080835404028352916020019162000f5a565b820191906000526020600020905b81548152906001019060200180831162000f3c57829003601f168201915b505050505091505091939590929450565b62000f768162000cc2565b6001600160a01b0381811660009081526020819052604090205416331462000d14576040517fd4ed9a170000000000000000000000000000000000000000000000000000000081526001600160a01b038216600482015260240162000432565b62000fe18162000cc2565b6001600160a01b0381811660009081526020819052604090208054909116331480159062001021575033600090815260068201602052604090205460ff16155b1562001065576040517f6e1f2bef0000000000000000000000000000000000000000000000000000000081526001600160a01b038316600482015260240162000432565b5050565b80156200117f576001600160a01b038216620010b1576040517fcfb6108a00000000000000000000000000000000000000000000000000000000815260040160405180910390fd5b6001600160a01b038216600090815260068401602052604090205460ff161562001113576040517f9fb0d64c0000000000000000000000000000000000000000000000000000000081526001600160a01b038316600482015260240162000432565b6001600160a01b0382166000908152600684016020526040902054610100900460ff16156200117a576040517f9d066d5a0000000000000000000000000000000000000000000000000000000081526001600160a01b038316600482015260240162000432565b505050565b6001600160a01b038216600090815260068401602052604090205460ff166200117a576040517fde0cce500000000000000000000000000000000000000000000000000000000081526001600160a01b038316600482015260240162000432565b60408051608080517f000000000000000000000000000000000000000000000000000000000000000060009081527f00000000000000000000000000000000000000000000000000000000000000006020527f0000000000000000000000000000000000000000000000000000000000000000855246606090815286845260a08220949095529384905290525b92915050565b611b8980620019af83390190565b828054828255906000526020600020908101928215620012c4579160200282015b82811115620012c4578251829060ff16905591602001919060010190620012a2565b50620012d2929150620012d6565b5090565b5b80821115620012d25760008155600101620012d7565b80356001600160a01b03811681146200130557600080fd5b919050565b6000602082840312156200131d57600080fd5b6200132882620012ed565b9392505050565b6000815180845260005b81811015620013575760208185018101518683018201520162001339565b506000602082860101526020601f19601f83011685010191505092915050565b8581526000602060a0818401526200139360a08401886200132f565b8381036040850152620013a781886200132f565b8481036060860152865180825283880192509083019060005b81811015620013de57835183529284019291840191600101620013c0565b50508481036080860152620013f481876200132f565b9a9950505050505050505050565b634e487b7160e01b600052604160045260246000fd5b600082601f8301126200142a57600080fd5b813567ffffffffffffffff8082111562001448576200144862001402565b604051601f8301601f19908116603f0116810190828211818310171562001473576200147362001402565b816040528381528660208588010111156200148d57600080fd5b836020870160208301376000602085830101528094505050505092915050565b600080600080600060a08688031215620014c657600080fd5b853567ffffffffffffffff80821115620014df57600080fd5b620014ed89838a0162001418565b965060208801359150808211156200150457600080fd5b6200151289838a0162001418565b955060408801359150808211156200152957600080fd5b50620015388882890162001418565b9350506200154960608701620012ed565b949793965091946080013592915050565b6000602082840312156200156d57600080fd5b5035919050565b6020808252825182820181905260009190848201906040850190845b81811015620015b75783516001600160a01b03168352928401929184019160010162001590565b50909695505050505050565b60008060408385031215620015d757600080fd5b620015e283620012ed565b9150620015f260208401620012ed565b90509250929050565b6000806000606084860312156200161157600080fd5b6200161c84620012ed565b92506200162c60208501620012ed565b9150604084013580151581146200164257600080fd5b809150509250925092565b6000806000604084860312156200166357600080fd5b6200166e84620012ed565b9250602084013567ffffffffffffffff808211156200168c57600080fd5b818601915086601f830112620016a157600080fd5b813581811115620016b157600080fd5b876020828501011115620016c457600080fd5b6020830194508093505050509250925092565b600181811c90821680620016ec57607f821691505b6020821081036200170d57634e487b7160e01b600052602260045260246000fd5b50919050565b601f8211156200117a57600081815260208120601f850160051c810160208610156200173c5750805b601f850160051c820191505b818110156200175d5782815560010162001748565b505050505050565b815167ffffffffffffffff81111562001782576200178262001402565b6200179a81620017938454620016d7565b8462001713565b602080601f831160018114620017d25760008415620017b95750858301515b600019600386901b1c1916600185901b1785556200175d565b600085815260208120601f198616915b828110156200180357888601518255948401946001909101908401620017e2565b5085821015620018225787850151600019600388901b60f8161c191681555b5050505050600190811b01905550565b6001600160a01b038616815260a0602082015260006200185660a08301876200132f565b82810360408401526200186a81876200132f565b905082810360608401526200188081866200132f565b9150508260808301529695505050505050565b634e487b7160e01b600052603260045260246000fd5b818103818111156200126d57634e487b7160e01b600052601160045260246000fd5b634e487b7160e01b600052603160045260246000fd5b67ffffffffffffffff831115620018fc57620018fc62001402565b62001914836200190d8354620016d7565b8362001713565b6000601f8411600181146200194b5760008515620019325750838201355b600019600387901b1c1916600186901b17835562000cbb565b600083815260209020601f19861690835b828110156200197e57868501358255602094850194600190920191016200195c565b50868210156200199c5760001960f88860031b161c19848701351681555b505060018560011b018355505050505056fe600a61016052695369676e65645a6f6e6560b01b610180527f0aa333075d560d6d2e102e9d7afe8a8ba8b4a3ec41e19473caad880f9eb5fbe660a05260056101a052640312e302e360dc1b6101c0527f06c015bd22b4c69690933c1058878ebdfef31f9aaae40bbe86d8a09fe1b2972c60c0526c08a92a06e626488dedac2d2dc5609b1b6102009081526b1cdd1c9a5b99c81b985b594b60a21b61020d526e1cdd1c9a5b99c81d995c9cda5bdb8b608a1b610219526f1d5a5b9d0c8d4d8818da185a5b92590b60821b610228527f6164647265737320766572696679696e67436f6e74726163740000000000000061023852602960f81b61025181905260526101e081905290912060e0526b0a6d2cedccac89ee4c8cae4560a31b610272908152711859191c995cdcc8199d5b199a5b1b195c8b60721b61027e52711d5a5b9d0d8d08195e1c1a5c985d1a5bdb8b60721b6102905271189e5d195ccccc881bdc99195c92185cda0b60721b6102a2526c189e5d195cc818dbdb9d195e1d609a1b6102b4526102c19190915260506102528190526102c260405290206101005246610120523480156101af57600080fd5b5060e05160a0805160c0516040805160009586526020939093529081524660609081523060809081529385209290915292909252339052610140526040517f98a7ac23945182ac62b68fbe5ba35cc0bf5c4c34b3a410ce94a4c2270282d6b590600090a160805160a05160c05160e05161010051610120516101405161190e61027b6000396000610f9801526000610edf01526000610e3e01526000610f0f01526000610f5901526000610f350152600081816102fd01528181610a7f015261108d015261190e6000f3fe6080604052600436106100655760003560e01c806369c56dc91161004357806369c56dc91461025c578063c3b1e7051461027f578063d61d79d21461029457610065565b80630be2ebbe146101d557806317b1f942146102005780632e778efc14610239575b60003660606001600160e01b03198335167ff460590b000000000000000000000000000000000000000000000000000000008190036100eb5760006100ad3660048184611251565b8101906100ba9190611290565b905060006100cb3660248184611251565b8101906100d891906112b4565b90506100e482826102a9565b50506101c8565b6001600160e01b031981167fa784b80c000000000000000000000000000000000000000000000000000000000361014b576101246102cc565b60405160200161013491906112d6565b6040516020818303038152906040529150506101ca565b6001600160e01b031981167f01ffc9a700000000000000000000000000000000000000000000000000000000036101c857600061018b3660048184611251565b8101906101989190611323565b90506101a381610379565b60408051911515602083015201604051602081830303815290604052925050506101ca565b505b915050805190602001f35b3480156101e157600080fd5b506101ea610416565b6040516101f7919061139d565b60405180910390f35b34801561020c57600080fd5b5061022061021b3660046113b0565b610485565b6040516001600160e01b031990911681526020016101f7565b34801561024557600080fd5b5061024e6106d5565b6040516101f79291906113ec565b34801561026857600080fd5b506102716107a6565b6040519081526020016101f7565b34801561028b57600080fd5b50610271610901565b3480156102a057600080fd5b506101ea6109bf565b6102b1610a7d565b806102c3576102bf82610ab6565b5050565b6102bf82610b0c565b6040517f66a2489f0000000000000000000000000000000000000000000000000000000081523060048201526060907f00000000000000000000000000000000000000000000000000000000000000006001600160a01b0316906366a2489f90602401600060405180830381865afa15801561034c573d6000803e3d6000fd5b505050506040513d6000823e601f3d908101601f1916820160405261037491908101906114db565b905090565b60006001600160e01b031982167f2e778efc0000000000000000000000000000000000000000000000000000000014806103dc57506001600160e01b031982167f39c677be00000000000000000000000000000000000000000000000000000000145b8061041057507f01ffc9a7000000000000000000000000000000000000000000000000000000006001600160e01b03198316145b92915050565b6040517f436f6e73696465726174696f6e2800000000000000000000000000000000000060208201527f52656365697665644974656d5b5d20636f6e73696465726174696f6e00000000602e820152602960f81b604a820152604b015b60405160208183030381529060405281565b600061048f610b5e565b36600061049f60a085018561157a565b90925090508335600080602460c435018035607e81146104cb5763d232fd2c600052846020526024601cfd5b50602081013560f81c80156104ec576364115774600052846020526024601cfd5b50607d81013560f81c801561050d576326787999600052846020526024601cfd5b506035013560c01c90504281101561053557631654607160005280602052826040526044601cfd5b602460a4350135915036600061054f605d601d888a611251565b909250905036600061056488605d818c611251565b91509150600061057388610b78565b905086156105995761059961059361058e60808f018f6115c8565b610bb2565b89610e05565b60006105a882888b8787610e3a565b905060006105f26105b7610edb565b7f1901000000000000000000000000000000000000000000000000000000000000600090815260029190915260228481526042822091905290565b905060006106368289898080601f016020809104026020016040519081016040528093929190818152602001838380828437600092019190915250610fba92505050565b6001600160a01b03811660009081526020819052604090205490915060ff166106a1576040517f17c300890000000000000000000000000000000000000000000000000000000081526001600160a01b0382166004820152602481018c905260440160405180910390fd5b507f17b1f942000000000000000000000000000000000000000000000000000000009e9d5050505050505050505050505050565b604080516001808252818301909252606091829190816020015b6040805180820190915260008152606060208201528152602001906001900390816106ef57905050905060078160008151811061072e5761072e611611565b60209081029190910101515260008080808061074861104c565b945094509450945094508396508483838360405160200161076c9493929190611627565b6040516020818303038152906040528660008151811061078e5761078e611611565b60200260200101516020018190525050505050509091565b6040517f436f6e73696465726174696f6e2800000000000000000000000000000000000060208201527f52656365697665644974656d5b5d20636f6e73696465726174696f6e00000000602e820152602960f81b604a820152604b0160408051601f19818403018152908290526c0a4cac6cad2eccac892e8cada5609b1b60208301526e1d5a5b9d0e081a5d195b551e5c194b608a1b602d8301526d1859191c995cdcc81d1bdad95b8b60921b603c8301527f75696e74323536206964656e7469666965722c00000000000000000000000000604a8301526e1d5a5b9d0c8d4d88185b5bdd5b9d0b608a1b605d8301527f6164647265737320726563697069656e74000000000000000000000000000000606c830152602960f81b607d83015290607e0160408051601f19818403018152908290526108e89291602001611695565b6040516020818303038152906040528051906020012081565b6040516c0a4cac6cad2eccac892e8cada5609b1b60208201526e1d5a5b9d0e081a5d195b551e5c194b608a1b602d8201526d1859191c995cdcc81d1bdad95b8b60921b603c8201527f75696e74323536206964656e7469666965722c00000000000000000000000000604a8201526e1d5a5b9d0c8d4d88185b5bdd5b9d0b608a1b605d8201527f6164647265737320726563697069656e74000000000000000000000000000000606c820152602960f81b607d820152607e016108e8565b6040516c0a4cac6cad2eccac892e8cada5609b1b60208201526e1d5a5b9d0e081a5d195b551e5c194b608a1b602d8201526d1859191c995cdcc81d1bdad95b8b60921b603c8201527f75696e74323536206964656e7469666965722c00000000000000000000000000604a8201526e1d5a5b9d0c8d4d88185b5bdd5b9d0b608a1b605d8201527f6164647265737320726563697069656e74000000000000000000000000000000606c820152602960f81b607d820152607e01610473565b7f0000000000000000000000000000000000000000000000000000000000000000338114610ab357636d5769be6000526004601cfd5b50565b6001600160a01b03811660008181526020818152604091829020805460ff1916905590519182527f3525e22824a8a7df2c9a6029941c824cf95b6447f1e13d5128fd3826d35afe8b91015b60405180910390a150565b6001600160a01b03811660008181526020818152604091829020805460ff1916600117905590519182527f47d1c22a25bb3a5d4e481b9b1e6944c2eade3181a0a20b495ed61d35b5323f249101610b01565b602060043514610b76576346d5d8956000526004601cfd5b565b604560c435013560601c604435811515828214151615610bac57631bcf9bb76000528160205280604052826060526064601cfd5b50919050565b600081818167ffffffffffffffff811115610bcf57610bcf611470565b604051908082528060200260200182016040528015610bf8578160200160208202803683370190505b50905060005b82811015610c4b57610c26868683818110610c1b57610c1b611611565b905060a00201611114565b828281518110610c3857610c38611611565b6020908102919091010152600101610bfe565b506040517f436f6e73696465726174696f6e2800000000000000000000000000000000000060208201527f52656365697665644974656d5b5d20636f6e73696465726174696f6e00000000602e820152602960f81b604a820152604b0160408051601f19818403018152908290526c0a4cac6cad2eccac892e8cada5609b1b60208301526e1d5a5b9d0e081a5d195b551e5c194b608a1b602d8301526d1859191c995cdcc81d1bdad95b8b60921b603c8301527f75696e74323536206964656e7469666965722c00000000000000000000000000604a8301526e1d5a5b9d0c8d4d88185b5bdd5b9d0b608a1b605d8301527f6164647265737320726563697069656e74000000000000000000000000000000606c830152602960f81b607d83015290607e0160408051601f1981840301815290829052610d8e9291602001611695565b6040516020818303038152906040528051906020012081604051602001610db591906116c4565b60405160208183030381529060405280519060200120604051602001610de5929190918252602082015260400190565b604051602081830303815290604052805190602001209250505092915050565b60a260c4350135608460a4350135838214610e34576359cb96d16000528160205280604052826060526064601cfd5b50505050565b60007f00000000000000000000000000000000000000000000000000000000000000008686868686604051610e709291906116fa565b604051908190038120610eba95949392916020019485526001600160a01b0393909316602085015267ffffffffffffffff9190911660408401526060830152608082015260a00190565b60405160208183030381529060405280519060200120905095945050505050565b60007f00000000000000000000000000000000000000000000000000000000000000004614610f95575060408051608080517f000000000000000000000000000000000000000000000000000000000000000060009081527f00000000000000000000000000000000000000000000000000000000000000006020527f0000000000000000000000000000000000000000000000000000000000000000855246606090815230845260a08220949095529093529190915290565b507f000000000000000000000000000000000000000000000000000000000000000090565b600080600052600082516020840380518260410360018111611040576040870151606088015160001a9550811561101d57601b8160ff1c0195507f7fffffffffffffffffffffffffffffffffffffffffffffffffffffffffffffff811660408901525b8588528884526020600060808660015afa50828452848852604088015260005195505b50905250909392505050565b600060608060608061105c610edb565b6040517f04789c980000000000000000000000000000000000000000000000000000000081523060048201529095507f00000000000000000000000000000000000000000000000000000000000000006001600160a01b0316906304789c9890602401600060405180830381865afa1580156110dc573d6000803e3d6000fd5b505050506040513d6000823e601f3d908101601f191682016040526111049190810190611776565b9899929891975095509350915050565b6040516c0a4cac6cad2eccac892e8cada5609b1b60208201526e1d5a5b9d0e081a5d195b551e5c194b608a1b602d8201526d1859191c995cdcc81d1bdad95b8b60921b603c8201527f75696e74323536206964656e7469666965722c00000000000000000000000000604a8201526e1d5a5b9d0c8d4d88185b5bdd5b9d0b608a1b605d8201527f6164647265737320726563697069656e74000000000000000000000000000000606c820152602960f81b607d820152600090607e0160408051601f198184030181529190528051602091820120906111f590840184611885565b6112056040850160208601611290565b6040850135606086013561121f60a0880160808901611290565b604051602001611234969594939291906118a6565b604051602081830303815290604052805190602001209050919050565b6000808585111561126157600080fd5b8386111561126e57600080fd5b5050820193919092039150565b6001600160a01b0381168114610ab357600080fd5b6000602082840312156112a257600080fd5b81356112ad8161127b565b9392505050565b6000602082840312156112c657600080fd5b813580151581146112ad57600080fd5b6020808252825182820181905260009190848201906040850190845b818110156113175783516001600160a01b0316835292840192918401916001016112f2565b50909695505050505050565b60006020828403121561133557600080fd5b81356001600160e01b0319811681146112ad57600080fd5b60005b83811015611368578181015183820152602001611350565b50506000910152565b6000815180845261138981602086016020860161134d565b601f01601f19169290920160200192915050565b6020815260006112ad6020830184611371565b6000602082840312156113c257600080fd5b813567ffffffffffffffff8111156113d957600080fd5b820161014081850312156112ad57600080fd5b600060408083526113ff81840186611371565b6020848203818601528186518084528284019150828160051b85010183890160005b8381101561146057868303601f1901855281518051845286015186840189905261144d89850182611371565b9587019593505090850190600101611421565b50909a9950505050505050505050565b634e487b7160e01b600052604160045260246000fd5b604051601f8201601f1916810167ffffffffffffffff811182821017156114af576114af611470565b604052919050565b600067ffffffffffffffff8211156114d1576114d1611470565b5060051b60200190565b600060208083850312156114ee57600080fd5b825167ffffffffffffffff81111561150557600080fd5b8301601f8101851361151657600080fd5b8051611529611524826114b7565b611486565b81815260059190911b8201830190838101908783111561154857600080fd5b928401925b8284101561156f5783516115608161127b565b8252928401929084019061154d565b979650505050505050565b6000808335601e1984360301811261159157600080fd5b83018035915067ffffffffffffffff8211156115ac57600080fd5b6020019150368190038213156115c157600080fd5b9250929050565b6000808335601e198436030181126115df57600080fd5b83018035915067ffffffffffffffff8211156115fa57600080fd5b602001915060a0810236038213156115c157600080fd5b634e487b7160e01b600052603260045260246000fd5b848152600060206080818401526116416080840187611371565b838103604085015285518082528287019183019060005b8181101561167457835183529284019291840191600101611658565b505084810360608601526116888187611371565b9998505050505050505050565b600083516116a781846020880161134d565b8351908301906116bb81836020880161134d565b01949350505050565b815160009082906020808601845b838110156116ee578151855293820193908201906001016116d2565b50929695505050505050565b8183823760009101908152919050565b600082601f83011261171b57600080fd5b815167ffffffffffffffff81111561173557611735611470565b6117486020601f19601f84011601611486565b81815284602083860101111561175d57600080fd5b61176e82602083016020870161134d565b949350505050565b600080600080600060a0868803121561178e57600080fd5b8551945060208087015167ffffffffffffffff808211156117ae57600080fd5b6117ba8a838b0161170a565b965060408901519150808211156117d057600080fd5b6117dc8a838b0161170a565b955060608901519150808211156117f257600080fd5b818901915089601f83011261180657600080fd5b8151611814611524826114b7565b81815260059190911b8301840190848101908c83111561183357600080fd5b938501935b8285101561185157845182529385019390850190611838565b60808c0151909750945050508083111561186a57600080fd5b50506118788882890161170a565b9150509295509295909350565b60006020828403121561189757600080fd5b8135600681106112ad57600080fd5b86815260c08101600687106118cb57634e487b7160e01b600052602160045260246000fd5b8660208301526001600160a01b03808716604084015285606084015284608084015280841660a08401525097965050505050505056fea164736f6c6343000811000aa164736f6c6343000811000a600a61016052695369676e65645a6f6e6560b01b610180527f0aa333075d560d6d2e102e9d7afe8a8ba8b4a3ec41e19473caad880f9eb5fbe660a05260056101a052640312e302e360dc1b6101c0527f06c015bd22b4c69690933c1058878ebdfef31f9aaae40bbe86d8a09fe1b2972c60c0526c08a92a06e626488dedac2d2dc5609b1b6102009081526b1cdd1c9a5b99c81b985b594b60a21b61020d526e1cdd1c9a5b99c81d995c9cda5bdb8b608a1b610219526f1d5a5b9d0c8d4d8818da185a5b92590b60821b610228527f6164647265737320766572696679696e67436f6e74726163740000000000000061023852602960f81b61025181905260526101e081905290912060e0526b0a6d2cedccac89ee4c8cae4560a31b610272908152711859191c995cdcc8199d5b199a5b1b195c8b60721b61027e52711d5a5b9d0d8d08195e1c1a5c985d1a5bdb8b60721b6102905271189e5d195ccccc881bdc99195c92185cda0b60721b6102a2526c189e5d195cc818dbdb9d195e1d609a1b6102b4526102c19190915260506102528190526102c260405290206101005246610120523480156101af57600080fd5b5060e05160a0805160c0516040805160009586526020939093529081524660609081523060809081529385209290915292909252339052610140526040517f98a7ac23945182ac62b68fbe5ba35cc0bf5c4c34b3a410ce94a4c2270282d6b590600090a160805160a05160c05160e05161010051610120516101405161190e61027b6000396000610f9801526000610edf01526000610e3e01526000610f0f01526000610f5901526000610f350152600081816102fd01528181610a7f015261108d015261190e6000f3fe6080604052600436106100655760003560e01c806369c56dc91161004357806369c56dc91461025c578063c3b1e7051461027f578063d61d79d21461029457610065565b80630be2ebbe146101d557806317b1f942146102005780632e778efc14610239575b60003660606001600160e01b03198335167ff460590b000000000000000000000000000000000000000000000000000000008190036100eb5760006100ad3660048184611251565b8101906100ba9190611290565b905060006100cb3660248184611251565b8101906100d891906112b4565b90506100e482826102a9565b50506101c8565b6001600160e01b031981167fa784b80c000000000000000000000000000000000000000000000000000000000361014b576101246102cc565b60405160200161013491906112d6565b6040516020818303038152906040529150506101ca565b6001600160e01b031981167f01ffc9a700000000000000000000000000000000000000000000000000000000036101c857600061018b3660048184611251565b8101906101989190611323565b90506101a381610379565b60408051911515602083015201604051602081830303815290604052925050506101ca565b505b915050805190602001f35b3480156101e157600080fd5b506101ea610416565b6040516101f7919061139d565b60405180910390f35b34801561020c57600080fd5b5061022061021b3660046113b0565b610485565b6040516001600160e01b031990911681526020016101f7565b34801561024557600080fd5b5061024e6106d5565b6040516101f79291906113ec565b34801561026857600080fd5b506102716107a6565b6040519081526020016101f7565b34801561028b57600080fd5b50610271610901565b3480156102a057600080fd5b506101ea6109bf565b6102b1610a7d565b806102c3576102bf82610ab6565b5050565b6102bf82610b0c565b6040517f66a2489f0000000000000000000000000000000000000000000000000000000081523060048201526060907f00000000000000000000000000000000000000000000000000000000000000006001600160a01b0316906366a2489f90602401600060405180830381865afa15801561034c573d6000803e3d6000fd5b505050506040513d6000823e601f3d908101601f1916820160405261037491908101906114db565b905090565b60006001600160e01b031982167f2e778efc0000000000000000000000000000000000000000000000000000000014806103dc57506001600160e01b031982167f39c677be00000000000000000000000000000000000000000000000000000000145b8061041057507f01ffc9a7000000000000000000000000000000000000000000000000000000006001600160e01b03198316145b92915050565b6040517f436f6e73696465726174696f6e2800000000000000000000000000000000000060208201527f52656365697665644974656d5b5d20636f6e73696465726174696f6e00000000602e820152602960f81b604a820152604b015b60405160208183030381529060405281565b600061048f610b5e565b36600061049f60a085018561157a565b90925090508335600080602460c435018035607e81146104cb5763d232fd2c600052846020526024601cfd5b50602081013560f81c80156104ec576364115774600052846020526024601cfd5b50607d81013560f81c801561050d576326787999600052846020526024601cfd5b506035013560c01c90504281101561053557631654607160005280602052826040526044601cfd5b602460a4350135915036600061054f605d601d888a611251565b909250905036600061056488605d818c611251565b91509150600061057388610b78565b905086156105995761059961059361058e60808f018f6115c8565b610bb2565b89610e05565b60006105a882888b8787610e3a565b905060006105f26105b7610edb565b7f1901000000000000000000000000000000000000000000000000000000000000600090815260029190915260228481526042822091905290565b905060006106368289898080601f016020809104026020016040519081016040528093929190818152602001838380828437600092019190915250610fba92505050565b6001600160a01b03811660009081526020819052604090205490915060ff166106a1576040517f17c300890000000000000000000000000000000000000000000000000000000081526001600160a01b0382166004820152602481018c905260440160405180910390fd5b507f17b1f942000000000000000000000000000000000000000000000000000000009e9d5050505050505050505050505050565b604080516001808252818301909252606091829190816020015b6040805180820190915260008152606060208201528152602001906001900390816106ef57905050905060078160008151811061072e5761072e611611565b60209081029190910101515260008080808061074861104c565b945094509450945094508396508483838360405160200161076c9493929190611627565b6040516020818303038152906040528660008151811061078e5761078e611611565b60200260200101516020018190525050505050509091565b6040517f436f6e73696465726174696f6e2800000000000000000000000000000000000060208201527f52656365697665644974656d5b5d20636f6e73696465726174696f6e00000000602e820152602960f81b604a820152604b0160408051601f19818403018152908290526c0a4cac6cad2eccac892e8cada5609b1b60208301526e1d5a5b9d0e081a5d195b551e5c194b608a1b602d8301526d1859191c995cdcc81d1bdad95b8b60921b603c8301527f75696e74323536206964656e7469666965722c00000000000000000000000000604a8301526e1d5a5b9d0c8d4d88185b5bdd5b9d0b608a1b605d8301527f6164647265737320726563697069656e74000000000000000000000000000000606c830152602960f81b607d83015290607e0160408051601f19818403018152908290526108e89291602001611695565b6040516020818303038152906040528051906020012081565b6040516c0a4cac6cad2eccac892e8cada5609b1b60208201526e1d5a5b9d0e081a5d195b551e5c194b608a1b602d8201526d1859191c995cdcc81d1bdad95b8b60921b603c8201527f75696e74323536206964656e7469666965722c00000000000000000000000000604a8201526e1d5a5b9d0c8d4d88185b5bdd5b9d0b608a1b605d8201527f6164647265737320726563697069656e74000000000000000000000000000000606c820152602960f81b607d820152607e016108e8565b6040516c0a4cac6cad2eccac892e8cada5609b1b60208201526e1d5a5b9d0e081a5d195b551e5c194b608a1b602d8201526d1859191c995cdcc81d1bdad95b8b60921b603c8201527f75696e74323536206964656e7469666965722c00000000000000000000000000604a8201526e1d5a5b9d0c8d4d88185b5bdd5b9d0b608a1b605d8201527f6164647265737320726563697069656e74000000000000000000000000000000606c820152602960f81b607d820152607e01610473565b7f0000000000000000000000000000000000000000000000000000000000000000338114610ab357636d5769be6000526004601cfd5b50565b6001600160a01b03811660008181526020818152604091829020805460ff1916905590519182527f3525e22824a8a7df2c9a6029941c824cf95b6447f1e13d5128fd3826d35afe8b91015b60405180910390a150565b6001600160a01b03811660008181526020818152604091829020805460ff1916600117905590519182527f47d1c22a25bb3a5d4e481b9b1e6944c2eade3181a0a20b495ed61d35b5323f249101610b01565b602060043514610b76576346d5d8956000526004601cfd5b565b604560c435013560601c604435811515828214151615610bac57631bcf9bb76000528160205280604052826060526064601cfd5b50919050565b600081818167ffffffffffffffff811115610bcf57610bcf611470565b604051908082528060200260200182016040528015610bf8578160200160208202803683370190505b50905060005b82811015610c4b57610c26868683818110610c1b57610c1b611611565b905060a00201611114565b828281518110610c3857610c38611611565b6020908102919091010152600101610bfe565b506040517f436f6e73696465726174696f6e2800000000000000000000000000000000000060208201527f52656365697665644974656d5b5d20636f6e73696465726174696f6e00000000602e820152602960f81b604a820152604b0160408051601f19818403018152908290526c0a4cac6cad2eccac892e8cada5609b1b60208301526e1d5a5b9d0e081a5d195b551e5c194b608a1b602d8301526d1859191c995cdcc81d1bdad95b8b60921b603c8301527f75696e74323536206964656e7469666965722c00000000000000000000000000604a8301526e1d5a5b9d0c8d4d88185b5bdd5b9d0b608a1b605d8301527f6164647265737320726563697069656e74000000000000000000000000000000606c830152602960f81b607d83015290607e0160408051601f1981840301815290829052610d8e9291602001611695565b6040516020818303038152906040528051906020012081604051602001610db591906116c4565b60405160208183030381529060405280519060200120604051602001610de5929190918252602082015260400190565b604051602081830303815290604052805190602001209250505092915050565b60a260c4350135608460a4350135838214610e34576359cb96d16000528160205280604052826060526064601cfd5b50505050565b60007f00000000000000000000000000000000000000000000000000000000000000008686868686604051610e709291906116fa565b604051908190038120610eba95949392916020019485526001600160a01b0393909316602085015267ffffffffffffffff9190911660408401526060830152608082015260a00190565b60405160208183030381529060405280519060200120905095945050505050565b60007f00000000000000000000000000000000000000000000000000000000000000004614610f95575060408051608080517f000000000000000000000000000000000000000000000000000000000000000060009081527f00000000000000000000000000000000000000000000000000000000000000006020527f0000000000000000000000000000000000000000000000000000000000000000855246606090815230845260a08220949095529093529190915290565b507f000000000000000000000000000000000000000000000000000000000000000090565b600080600052600082516020840380518260410360018111611040576040870151606088015160001a9550811561101d57601b8160ff1c0195507f7fffffffffffffffffffffffffffffffffffffffffffffffffffffffffffffff811660408901525b8588528884526020600060808660015afa50828452848852604088015260005195505b50905250909392505050565b600060608060608061105c610edb565b6040517f04789c980000000000000000000000000000000000000000000000000000000081523060048201529095507f00000000000000000000000000000000000000000000000000000000000000006001600160a01b0316906304789c9890602401600060405180830381865afa1580156110dc573d6000803e3d6000fd5b505050506040513d6000823e601f3d908101601f191682016040526111049190810190611776565b9899929891975095509350915050565b6040516c0a4cac6cad2eccac892e8cada5609b1b60208201526e1d5a5b9d0e081a5d195b551e5c194b608a1b602d8201526d1859191c995cdcc81d1bdad95b8b60921b603c8201527f75696e74323536206964656e7469666965722c00000000000000000000000000604a8201526e1d5a5b9d0c8d4d88185b5bdd5b9d0b608a1b605d8201527f6164647265737320726563697069656e74000000000000000000000000000000606c820152602960f81b607d820152600090607e0160408051601f198184030181529190528051602091820120906111f590840184611885565b6112056040850160208601611290565b6040850135606086013561121f60a0880160808901611290565b604051602001611234969594939291906118a6565b604051602081830303815290604052805190602001209050919050565b6000808585111561126157600080fd5b8386111561126e57600080fd5b5050820193919092039150565b6001600160a01b0381168114610ab357600080fd5b6000602082840312156112a257600080fd5b81356112ad8161127b565b9392505050565b6000602082840312156112c657600080fd5b813580151581146112ad57600080fd5b6020808252825182820181905260009190848201906040850190845b818110156113175783516001600160a01b0316835292840192918401916001016112f2565b50909695505050505050565b60006020828403121561133557600080fd5b81356001600160e01b0319811681146112ad57600080fd5b60005b83811015611368578181015183820152602001611350565b50506000910152565b6000815180845261138981602086016020860161134d565b601f01601f19169290920160200192915050565b6020815260006112ad6020830184611371565b6000602082840312156113c257600080fd5b813567ffffffffffffffff8111156113d957600080fd5b820161014081850312156112ad57600080fd5b600060408083526113ff81840186611371565b6020848203818601528186518084528284019150828160051b85010183890160005b8381101561146057868303601f1901855281518051845286015186840189905261144d89850182611371565b9587019593505090850190600101611421565b50909a9950505050505050505050565b634e487b7160e01b600052604160045260246000fd5b604051601f8201601f1916810167ffffffffffffffff811182821017156114af576114af611470565b604052919050565b600067ffffffffffffffff8211156114d1576114d1611470565b5060051b60200190565b600060208083850312156114ee57600080fd5b825167ffffffffffffffff81111561150557600080fd5b8301601f8101851361151657600080fd5b8051611529611524826114b7565b611486565b81815260059190911b8201830190838101908783111561154857600080fd5b928401925b8284101561156f5783516115608161127b565b8252928401929084019061154d565b979650505050505050565b6000808335601e1984360301811261159157600080fd5b83018035915067ffffffffffffffff8211156115ac57600080fd5b6020019150368190038213156115c157600080fd5b9250929050565b6000808335601e198436030181126115df57600080fd5b83018035915067ffffffffffffffff8211156115fa57600080fd5b602001915060a0810236038213156115c157600080fd5b634e487b7160e01b600052603260045260246000fd5b848152600060206080818401526116416080840187611371565b838103604085015285518082528287019183019060005b8181101561167457835183529284019291840191600101611658565b505084810360608601526116888187611371565b9998505050505050505050565b600083516116a781846020880161134d565b8351908301906116bb81836020880161134d565b01949350505050565b815160009082906020808601845b838110156116ee578151855293820193908201906001016116d2565b50929695505050505050565b8183823760009101908152919050565b600082601f83011261171b57600080fd5b815167ffffffffffffffff81111561173557611735611470565b6117486020601f19601f84011601611486565b81815284602083860101111561175d57600080fd5b61176e82602083016020870161134d565b949350505050565b600080600080600060a0868803121561178e57600080fd5b8551945060208087015167ffffffffffffffff808211156117ae57600080fd5b6117ba8a838b0161170a565b965060408901519150808211156117d057600080fd5b6117dc8a838b0161170a565b955060608901519150808211156117f257600080fd5b818901915089601f83011261180657600080fd5b8151611814611524826114b7565b81815260059190911b8301840190848101908c83111561183357600080fd5b938501935b8285101561185157845182529385019390850190611838565b60808c0151909750945050508083111561186a57600080fd5b50506118788882890161170a565b9150509295509295909350565b60006020828403121561189757600080fd5b8135600681106112ad57600080fd5b86815260c08101600687106118cb57634e487b7160e01b600052602160045260246000fd5b8660208301526001600160a01b03808716604084015285606084015284608084015280841660a08401525097965050505050505056fea164736f6c6343000811000a",
  "devdoc": {
    "author": "BCLeFevre",
    "errors": {
      "CallerIsNotNewPotentialOwner(address)": [
        {
          "details": "Revert with an error when attempting to claim ownership of a zone      with a caller that is not the current potential owner for the      zone in question."
        }
      ],
      "CallerIsNotOwner(address)": [
        {
          "details": "Revert with an error when attempting to update channels or transfer      ownership of a zone when the caller is not the owner of the      zone in question."
        }
      ],
      "CallerIsNotOwnerOrSigner(address)": [
        {
          "details": "Revert with an error when the caller is not the owner or an active      signer of the signed zone in question."
        }
      ],
      "InvalidCreator()": [
        {
          "details": "Revert with an error when attempting to create a new signed zone      using a salt where the first twenty bytes do not match the address      of the caller or are not set to zero."
        }
      ],
      "InvalidInitialOwner()": [
        {
          "details": "Revert with an error when attempting to create a new zone when no      initial owner address is supplied."
        }
      ],
      "NewPotentialOwnerAlreadySet(address,address)": [
        {
          "details": "Revert with an error when attempting to set a new potential owner      that is already set."
        }
      ],
      "NewPotentialOwnerIsZeroAddress(address)": [
        {
          "details": "Revert with an error when attempting to register a new potential      owner and supplying the null address."
        }
      ],
      "NoPotentialOwnerCurrentlySet(address)": [
        {
          "details": "Revert with an error when attempting to cancel ownership transfer      when no new potential owner is currently set."
        }
      ],
      "NoZone()": [
        {
          "details": "Revert with an error when attempting to interact with a zone that      does not yet exist."
        }
      ],
      "SignerAlreadyAdded(address)": [
        {
          "details": "Revert with an error if trying to add a signer that is      already active."
        }
      ],
      "SignerCannotBeReauthorized(address)": [
        {
          "details": "Revert with an error if a removed signer is trying to be      reauthorized."
        }
      ],
      "SignerCannotBeZeroAddress()": [
        {
          "details": "Revert with an error if a new signer is the zero address."
        }
      ],
      "SignerNotPresent(address)": [
        {
          "details": "Revert with an error if trying to remove a signer that is      not present."
        }
      ],
      "ZoneAlreadyExists(address)": [
        {
          "details": "Revert with an error when attempting to deploy a zone that is      currently deployed."
        }
      ]
    },
    "kind": "dev",
    "methods": {
      "acceptOwnership(address)": {
        "params": {
          "zone": "The zone for which to accept ownership."
        }
      },
      "cancelOwnershipTransfer(address)": {
        "params": {
          "zone": "The zone for which to cancel ownership transfer."
        }
      },
      "constructor": {
        "details": "Initialize contract"
      },
      "createZone(string,string,string,address,bytes32)": {
        "params": {
          "apiEndpoint": "The API endpoint where orders for this zone can be                    signed.",
          "documentationURI": "The URI to the documentation describing the                         behavior of the contract.                    Request and response payloads are defined in SIP-7.",
          "initialOwner": "The initial owner to set for the new zone.",
          "salt": "The salt to be used to derive the zone address",
          "zoneName": "The name for the zone returned in                    getSeaportMetadata()."
        },
        "returns": {
          "derivedAddress": "The derived address for the zone."
        }
      },
      "getActiveSigners(address)": {
        "params": {
          "zone": "The zone to return the active signers for."
        },
        "returns": {
          "signers": "The active signers."
        }
      },
      "getAdditionalZoneInformation(address)": {
        "returns": {
          "apiEndpoint": "     The API endpoint for the zone.",
          "documentationURI": "The documentation URI for the zone.",
          "domainSeparator": " The domain separator used for signing.",
          "substandards": "    The substandards supported by the zone.",
          "zoneName": "        The name of the zone."
        }
      },
      "getPotentialOwner(address)": {
        "params": {
          "zone": "The zone for which to retrieve the potential owner."
        },
        "returns": {
          "potentialOwner": "The potential owner, if any, for the zone."
        }
      },
      "getZone(bytes32)": {
        "params": {
          "salt": "The salt to be used to derive the zone address."
        },
        "returns": {
          "derivedAddress": "The derived address of the signed zone."
        }
      },
      "ownerOf(address)": {
        "params": {
          "zone": "The zone for which to retrieve the associated owner."
        },
        "returns": {
          "owner": "The owner of the supplied zone."
        }
      },
      "transferOwnership(address,address)": {
        "params": {
          "newPotentialOwner": "The new potential owner of the zone.",
          "zone": "The zone for which to initiate ownership transfer."
        }
      },
      "updateAPIEndpoint(address,string)": {
        "params": {
          "newApiEndpoint": "The new API endpoint.",
          "zone": "The signed zone to update the API endpoint for."
        }
      },
      "updateSigner(address,address,bool)": {
        "params": {
          "active": "Whether the signer should be active or not.",
          "signer": "The signer to update the permissions for.",
          "zone": "The signed zone to update the signer permissions for."
        }
      }
    },
    "stateVariables": {
      "_NAME_HASH": {
        "details": "The EIP-712 digest parameters for the SignedZone."
      },
      "_signedZones": {
        "details": "Mapping of signed zone properties keyed by the Signed Zone      address."
      }
    },
    "title": "SignedZoneController",
    "version": 1
  },
  "userdoc": {
    "kind": "user",
    "methods": {
      "acceptOwnership(address)": {
        "notice": "Accept ownership of a supplied zone. Only accounts that the         current owner has set as the new potential owner may call this         function."
      },
      "cancelOwnershipTransfer(address)": {
        "notice": "Clear the currently set potential owner, if any, from a zone.         Only the owner of the zone in question may call this function."
      },
      "createZone(string,string,string,address,bytes32)": {
        "notice": "Deploy a SignedZone to a precomputed address."
      },
      "getActiveSigners(address)": {
        "notice": "Returns the active signers for the zone."
      },
      "getAdditionalZoneInformation(address)": {
        "notice": "External call to return the signing information, substandards,         and documentation about the zone."
      },
      "getPotentialOwner(address)": {
        "notice": "Retrieve the potential owner, if any, for a given zone. The         current owner may set a new potential owner via         `transferOwnership` and that owner may then accept ownership of         the zone in question via `acceptOwnership`."
      },
      "getZone(bytes32)": {
        "notice": "Derive the zone address associated with a salt."
      },
      "ownerOf(address)": {
        "notice": "Retrieve the current owner of a deployed zone."
      },
      "transferOwnership(address,address)": {
        "notice": "Initiate zone ownership transfer by assigning a new potential         owner for the given zone. Once set, the new potential owner         may call `acceptOwnership` to claim ownership of the zone.         Only the owner of the zone in question may call this function."
      },
      "updateAPIEndpoint(address,string)": {
        "notice": "Update the API endpoint returned by a zone.         Only the owner or an active signer of the supplied zone can call         this function."
      },
      "updateSigner(address,address,bool)": {
        "notice": "Add or remove a signer from the supplied zone.         Only the owner or an active signer of the supplied zone can call         this function."
      }
    },
    "notice": "SignedZoneController enables the deploying of SignedZones.         SignedZones are an implementation of SIP-7 that requires orders to         be signed by  an approved signer.         https://github.com/ProjectOpenSea/SIPs/blob/main/SIPS/sip-7.md",
    "version": 1
  },
  "storageLayout": {
    "storage": [
      {
        "astId": 1119,
        "contract": "src/zones/SignedZoneController.sol:SignedZoneController",
        "label": "_signedZones",
        "offset": 0,
        "slot": "0",
        "type": "t_mapping(t_address,t_struct(SignedZoneProperties)1113_storage)"
      }
    ],
    "types": {
      "t_address": {
        "encoding": "inplace",
        "label": "address",
        "numberOfBytes": "20"
      },
      "t_array(t_address)dyn_storage": {
        "base": "t_address",
        "encoding": "dynamic_array",
        "label": "address[]",
        "numberOfBytes": "32"
      },
      "t_array(t_uint256)dyn_storage": {
        "base": "t_uint256",
        "encoding": "dynamic_array",
        "label": "uint256[]",
        "numberOfBytes": "32"
      },
      "t_bool": {
        "encoding": "inplace",
        "label": "bool",
        "numberOfBytes": "1"
      },
      "t_mapping(t_address,t_struct(SignedZoneProperties)1113_storage)": {
        "encoding": "mapping",
        "key": "t_address",
        "label": "mapping(address => struct SignedZoneController.SignedZoneProperties)",
        "numberOfBytes": "32",
        "value": "t_struct(SignedZoneProperties)1113_storage"
      },
      "t_mapping(t_address,t_struct(SignerInfo)1083_storage)": {
        "encoding": "mapping",
        "key": "t_address",
        "label": "mapping(address => struct SignedZoneController.SignerInfo)",
        "numberOfBytes": "32",
        "value": "t_struct(SignerInfo)1083_storage"
      },
      "t_string_storage": {
        "encoding": "bytes",
        "label": "string",
        "numberOfBytes": "32"
      },
      "t_struct(SignedZoneProperties)1113_storage": {
        "encoding": "inplace",
        "label": "struct SignedZoneController.SignedZoneProperties",
        "members": [
          {
            "astId": 1086,
            "contract": "src/zones/SignedZoneController.sol:SignedZoneController",
            "label": "owner",
            "offset": 0,
            "slot": "0",
            "type": "t_address"
          },
          {
            "astId": 1089,
            "contract": "src/zones/SignedZoneController.sol:SignedZoneController",
            "label": "potentialOwner",
            "offset": 0,
            "slot": "1",
            "type": "t_address"
          },
          {
            "astId": 1092,
            "contract": "src/zones/SignedZoneController.sol:SignedZoneController",
            "label": "zoneName",
            "offset": 0,
            "slot": "2",
            "type": "t_string_storage"
          },
          {
            "astId": 1095,
            "contract": "src/zones/SignedZoneController.sol:SignedZoneController",
            "label": "apiEndpoint",
            "offset": 0,
            "slot": "3",
            "type": "t_string_storage"
          },
          {
            "astId": 1098,
            "contract": "src/zones/SignedZoneController.sol:SignedZoneController",
            "label": "documentationURI",
            "offset": 0,
            "slot": "4",
            "type": "t_string_storage"
          },
          {
            "astId": 1102,
            "contract": "src/zones/SignedZoneController.sol:SignedZoneController",
            "label": "substandards",
            "offset": 0,
            "slot": "5",
            "type": "t_array(t_uint256)dyn_storage"
          },
          {
            "astId": 1108,
            "contract": "src/zones/SignedZoneController.sol:SignedZoneController",
            "label": "signers",
            "offset": 0,
            "slot": "6",
            "type": "t_mapping(t_address,t_struct(SignerInfo)1083_storage)"
          },
          {
            "astId": 1112,
            "contract": "src/zones/SignedZoneController.sol:SignedZoneController",
            "label": "activeSignerList",
            "offset": 0,
            "slot": "7",
            "type": "t_array(t_address)dyn_storage"
          }
        ],
        "numberOfBytes": "256"
      },
      "t_struct(SignerInfo)1083_storage": {
        "encoding": "inplace",
        "label": "struct SignedZoneController.SignerInfo",
        "members": [
          {
            "astId": 1079,
            "contract": "src/zones/SignedZoneController.sol:SignedZoneController",
            "label": "active",
            "offset": 0,
            "slot": "0",
            "type": "t_bool"
          },
          {
            "astId": 1082,
            "contract": "src/zones/SignedZoneController.sol:SignedZoneController",
            "label": "previouslyActive",
            "offset": 1,
            "slot": "0",
            "type": "t_bool"
          }
        ],
        "numberOfBytes": "32"
      },
      "t_uint256": {
        "encoding": "inplace",
        "label": "uint256",
        "numberOfBytes": "32"
      }
    }
  }
}